:1020C700000002000400060008000A000C000E00D1
:0C20D700FF0705010208010005000000E1
:101FBE00E4F5C275C78375C501AE02AF018E5A8FA7
:101FCE005B855AC3855BC475C65A75C6A5001222B9
:031FDE0011AFC27E
:011FE10022DD
:10206D0075C78375C502AE02AF018E5A8F5B855A57
:10207D00C3855BC48DC275C65A75C6A500022211F3
:1020FE0075C78375C5038E528F538552C38553C4DE
:0A210E0075C65A75C6A5000222111D
:0C221100E4F5C7F5C5F5C6F5C3F5C42219
:061C3A008B528A5389540D
:101C4000E4F559E559C395585028AB55AA56A957FC
:101C5000121FBEAB52AA53A954855982758300EF57
:101C60001212A774012557F557E43556F556055954
:021C700080D121
:011C7200224F
:061C73008B528A538954D4
:101C7900E4F559E559C395585028AB52AA53A954CC
:101C8900855982758300121268FDAB55AA56A9576A
:101C990012206D74012557F557E43556F556055947
:021CA90080D1E8
:011CAB002216
:07223500E493FE740193FF26
:04223C001220FE224C
:101033008F3FEFC3940640037FFF229020C7E493C2
:10104300FE740193AA067555008A56F5577558061E
:101053007B007A007940121C3A9020C9E493FE7415
:101063000193AA067555008A56F5577558067B00F5
:101073007A007946121C3A9020CBE493FE740193D4
:10108300AA067555008A56F5577558067B007A00EF
:10109300794C121C3A7446253FF8E6FF7440253F0D
:1010A300F8E6FE6F7039744C253FF8E66F602B74D9
:1010B3004C253FF8A6069020CB1222359020CBE496
:1010C30093FE740193AA067555008A56F557755811
:1010D300067B007A00794C121C737440021156741B
:1010E3004C253FF8E6FF7440253FF8E6FE6F702F6E
:1010F3007446253FF8A6069020C91222359020C9D0
:10110300E493FE740193AA067555008A56F5577544
:1011130058067B007A007946121C7374408034743D
:1011230046253FF8E6FF7440253FF8A6079020C701
:101133001222359020C7E493FE740193AA067555D5
:10114300008A56F5577558067B007A007940121CC1
:08115300737446253FF8E6FF26
:01115B002271
:101E4300E4FFEF9020D793FE74732FF8E6D39E4000
:101E53000CEF9020DD93FE74732FF8A60674732F96
:0D1E6300F8E6FE74792FF8A6060FBF06D52D
:011E7000224F
:101AB900121E43E4F540E54025E024C7F582E434ED
:101AC90020F583122235E54025E024C7F582E43468
:101AD90020F583E493FE740193AA067555008A568E
:101AE900F5577558067B007A007973121C73054007
:0A1AF900E540C3940340BF021ECB7A
:10202A00E4F53EAF3E1210337473253EF8A6070559
:10203A003EE53EC3940640EB7873E67002760102F1
:02204A001E4333
:0C221D0004050607080B03010101010184
:081579008E498F4A8C4B8D4C0A
:10158100E54C2404F582E4354BF583E0FFE54A247C
:1015910004F582E43549F583EFF0FFD3940C400262
:1015A1007F0CE4FEEEC39F5031E54C2405F582E447
:1015B100354BF583E5822EF582E43583F583E0FD35
:1015C100E54A2405F582E43549F583E5822EF58265
:1015D100E43583F583EDF00E80CA854C82854B831B
:1015E100E0854A82854983F0854C82854B83A3E05F
:0F15F100FFA3E0854A82854983A3CFF0A3EFF0E3
:0116000022C7
:10185700900028E0C39405501DE075F011A4242AD8
:10186700F582E43400AF82FE7C017D531215799036
:101877000028E004F022E4FBEB75F011A4242AF51C
:1018870082E43400AF82FEEB75F011A4243BF582AD
:10189700E43400AD82FC1215790BBB04DB7E007FBC
:0E18A7006E7C017D531215799000287405F0B7
:0118B5002210
:021341008F41DA
:10134300E533700302142490014FE0F542900154F9
:10135300E0F543A3E0F544E542D3940050030214BF
:1013630024E542D394024003021424AE43AF44E481
:10137300FCFDAB24AA23A922A82112133050030297
:101383001424E5207003021424E5128520F08485DB
:10139300F012C3740595202512F542AB44AA43E429
:1013A300FDFF122006747F2542F8E6FFE541600346
:1013B3000F80011FEFD39409400AE5416004E4FF65
:1013C30080027F09A6077880E6FF7E007C037DE824
:1013D3001212C9AA06AB07787FE6FF7E007C277D41
:1013E300101212C9EF2BFDEE3AFC7881E675F0641A
:1013F300A42DFDE5F03CFC08E675F00AA42DFFE5FD
:10140300F03CFE08E67C002FF544EC3EF5439001EA
:1014130054F0A3E544F0E4F511751C327F01122169
:01142300893F
:0114240022A5
:0217F1008F4126
:1017F30090014FE0FF900154E0FCA3E0FDEFD39490
:10180300004050EFD39402504AAE04AF05E4FCFD10
:10181300AB24AA23A922A8211213304036E5206065
:1018230032E53370028019E541600E0512E512C3FB
:1018330095204011E4F512800CAF121512EF7005DC
:10184300E52014F512753301751101751C327F0102
:03185300122189D6
:01185600226F
:02070F008F4019
:10071100E530B40109E5406440600302095DE52B61
:10072100B4010EE54064016008E4F52BAF15020940
:1007310055E54014700302086D24E170030207F2CD
:1007410024E0700302082324306003020960E529D4
:1007510064017038F52990014FE07013900151E068
:10076100700D753001F531751C107F0C0209559023
:10077100014FE0D3940050030209607876E61460DB
:1007810003020960752B017F0102095590014FE0B9
:10079100D394004012900154E508F0A3E509F05309
:1007A10010FC7F0102095590014FE06003020960CE
:1007B100900151E06003020960900028E0D39400A9
:1007C1005003020960E534700F753401E014A3F0A1
:1007D100E4F5107F03020955900029E07005F53416
:1007E10002095D900029E014F0E4F5107F0302098D
:1007F10055E529B4011EE4F52990014FE0D3940099
:100801005003020960E4900154F0A3F05310FC7FFF
:1008110001020955E53464017003020960E4FF0235
:100821001341E53464017003020960E5306401702D
:1008310036AF310531EFC394034024E4F53075320E
:1008410001751C32751202F513FF74732FF8E6FE61
:1008510074792FF8A6060FBF06F07F0402095575BB
:100861001C087F0C020955E4FF0217F1E4F53390EF
:10087100014FE0D394005003020958E50F600302D1
:10088100095890018DE09402506CE075F011A42498
:1008910091F582E43401AF82FE7C017D531215791A
:1008A100E52B90018DB40113E075F011A42494F5AA
:1008B10082E43401F5837401F08010E075F011A435
:1008C1002494F582E43401F583E4F090018DE00491
:1008D100F012185790014FE0B402157E017F537C4E
:1008E100017D64121579900154E0F508A3E0F50942
:1008F10090014FE014F0E52BB4010BE490014FF0AF
:10090100900151F0F52B90014FE07012900151E0F0
:10091100700C1221497874E6F535E4F5372290011F
:100921004FE0D394004010750F017875E62401F56E
:100931001EE433F51D8009750F02751D1F751E40DC
:10094100753D64751900751A64751401853536E4B1
:0F095100F5357F02022189E534B40103122149F3
:010960002274
:10208D00122149E51C6015E4FF74792FF8E6FE7402
:0C209D00732FF8A6060FBF06F0121AB948
:0120A9002214
:02115C008F40C2
:10115E00E51314603D14604814605314605E24045B
:10116E0070687541097879E6FB7A00E4FDFF121983
:10117E0015E512D3940240057512028007E5127030
:10118E0003754102747F2512F9E4F542F543894453
:10119E00804475420075430075447A754107803668
:1011AE0075420075430075447B7541058028754274
:1011BE000075430075447C754101801A75420075B7
:1011CE00430075447D754102800C754200754300E5
:1011DE0075447E754108AB42AA43A94412124FFFD3
:1011EE00E54060030F80011FEFD39541400AE540B3
:1011FE006004E4FF8002AF41EF121295E5137031E7
:10120E007880E675F00AA4FDACF018E675F064A4DB
:10121E002DFFE5F03CFE7881E67C002FFFEC3EFED4
:10122E00D3EF94FFEE940040047E007FFF7879A602
:10123E0007E4F511751C32E51390221D93FF022170
:01124E008916
:101CE400EF600E0513E513C39406400FE4F513806B
:101CF4000AAF131513EF7003751305E51390222330
:101D04009314F512E4F511751C32E51390221D931A
:041D1400FF02218920
:101B4B00EF6015AF13EF90222393FF0512E512C33D
:101B5B009F4016E4F5128011AF121512EF700AAF09
:101B6B0013EF9022239314F512E5137003751101F3
:0D1B7B00751C32E51390221D93FF02218995
:101E7100EF14602524E1601724E060182430701C01
:101E8100E529B40105E4F529800F7F01021CE4E492
:0D1E9100FF02115CE4FF021B4B12208D22AA
:101FE2008F3FE50CB4010F7879E67873F6121AB9CF
:101FF200753503750C02E532AF3FB40103021E7161
:0420020012070F2290
:101EF600E4FFD2A4D2B4D2B5D2B3000000000020D1
:101F0600B3030F801320B5047F20800C20B4047F18
:081F160040800520A4027F10A9
:011F1E0022A0
:10142500E50D640170030214D4E52A70030214D497
:10143500E4F52A121EF68F3EE53E652E6004853ED4
:101445002E22E53E702FE52764017020E528701CEB
:10145500E52FB410047F108010E52FB4200E900105
:101465004FE0D3940040057F20121FE2E4F527F5F5
:1014750029F5288024E5277024752701F52DE53EFB
:1014850064106005E53EB4200BE53EB4200B9001E9
:101495004FE07005AF3E121FE2853E2F22E528641E
:1014A50001602CAF2D052DEFC394C840227529018D
:1014B500E4F52DE53E6410600EE53EB4200E900186
:0F14C5004FE0D394004005AF3E121FE27528019F
:0114D40022F5
:10160100C0F9A4B0999282F880908883C6A1868E91
:10161100FF8BFFF1FFC7FFABA38CFFFF9287C1E3F5
:10162100FF89FFFFBFDFFEFDFBF7EF8FBFBF7FFF2E
:10163100C0F9A4B0999282F88090407924301912AF
:10164100FF8883C6A1868EC289F9E1BFC78FABA38C
:101651008C98AF9287C1E39CFF91A400FF027800B0
:10166100108883A7A1868EC289FBE1BFC78FABA378
:101671008C98AF9287C1E39CFF91A4BFBFBFBFBF4E
:0716810025262728292A2451
:101F1F0012197212000A7FE87E03122131753E01F9
:101F2F00AF3E1219CB12000A7FE87E031221310552
:081F3F003EE53EC3940640E8B4
:011F47002277
:01000A0022D3
:10211800E4FFEF90224F93FE746A2FF8A6060FBFD4
:0921280006F07F207E0302213144
:101F7000E4F53EE4FFE53E90168193FE746A2FF887
:101F8000A6060FBF06EF7F2C7E01122131053EE52C
:061F90003EC3940740DD92
:011F96002228
:09224000D2A0C295C296C2A022F0
:0D21EA00D283D294D293D292D291D290227D
:10204C00C296E4FEEF30E704D2978002C297C295A5
:10205C0000000000D295EF25E0FF0EBE08E6D296F8
:01206C002251
:101A6E00787206E6C394064002E4F67872E6246ABB
:101A7E00F8E6FFC3948040027F7F1221EAEF9016B2
:101A8E000193FF12204C7872E6146010146010144B
:101A9E0060101460102404700FC28322C29422C2FC
:0A1AAE009322C29222C29122C2903C
:011AB800220B
:041915008F498D4A1F
:101919007C037DE8AF03AE021212DBAA04AB057C9F
:10192900007D64AF03AE021212DBE54A2FFFAE4918
:101939000549747F2EF8A607AE02AF037C007D64CB
:101949001212DBAF05EF75F00A84254AFEAD490591
:1019590049747F2DF8A606EF75F00A84E54A25F04B
:08196900FF747F2549F8A60771
:011971002253
:101D4C008F478D487C277D10AF03AE021212DBAAA1
:101D5C0004AB057C037DE8AF03AE021212DBE54851
:101D6C002FFFAE470547747F2EF8A607AD48AF4747
:031D7C0002191534
:102006008F458D467C277D10AF03AE021212DBE5AD
:10201600462FFFAE450545747F2EF8A607AD46AFA1
:0420260045021D4C06
:1020E300E4FEEEC39D5013EF2E247FF8E6FC64302C
:0A20F3006003EC700576200E80E813
:0120FD0022C0
:10000E00E4FF746A2FF8762D0FBF06F6E531600413
:04001E00786FA63120
:0100220022BB
:1020AA0078687604E4FF745C2FF876200FBF0CF68C
:0C20BA00E4FF746A2FF876200FBF06F6D2
:0120C60022F7
:101972001220AAE520C39405500DE51FC39402402E
:101982000DE52094034007786A7641087664787002
:1019920076037879E6FB7A00E4FDFF121915E53249
:1019A20070087D02FF1220E3800CE511B401077478
:1019B2007F2512F87620787FE6786DF67880E678D3
:0919C2006EF67881E6786FF622DA
:1019CB00AE071220AAE51FC394025007E520C3946B
:1019DB00054004786A8002786D7646EE243008F66E
:1019EB0078707601E5326004E5117028EE24FE6014
:1019FB001114601214601314601424047016787A96
:101A0B00800E787B800A787C8006787D8002787ED9
:051A1B00E6786FF622E1
:052255007F010219CB1E
:05225A007F020219CB18
:05225F007F030219CB12
:052264007F040219CB0C
:052269007F050219CB06
:101A2000E514D394064003E4F514E4FFEFC39514E2
:101A30005009746A2FF8762D0F80F1AF14EFC3941C
:101A4000065009746A2FF876200F80F178707604BA
:101A500078687604785C7657087661087669087647
:0D1A6000747F04745C2FF876200FBF0CF625
:011A6D002256
:0C21F700E4FE746A2EF8A6070EBE06F681
:0122030022B8
:04096100AD07AC062C
:100965001220AA8D828C83E0FFA3E0F53FA3E0F57A
:1009750040ED2404F582E43CF583E0FEE51F6403C5
:100985007039EE2402FBE433FAED2BF582EC3AF5EF
:1009950083E0786AF6EE2403FBE433FAED2BF58267
:1009A500EC3AF583E008F6EE2404FBE433FAED2B8C
:1009B500F582EC3AF583E008F68015E51FB40210E0
:1009C500EFF4600CEFC4540F786AF6EF540F08F695
:1009D500D3E540940FE53F9427400678707605806F
:1009E50035D3E54094E7E53F9403400678707604F7
:1009F5008024D3E5409463E53F9400400678707603
:100A0500038013D3E5409409E53F940078704004D2
:100A15007602800276017870E6D395204002A62002
:100A25007868A606E4F53EE53EC39E5021ED240513
:100A3500F582E43CF583E582253EF582E43583F5D0
:100A450083E0FB745C253EF8A603053E80D9E52BC3
:100A5500B40121E47870F6753E01E53ED39520405A
:100A650003020B68C37406953EFD746A2DF8762D56
:100A7500053E80E67877E6640170567870F6EED329
:100A85009406400674FA2EFE8002E4FEE4F53EE587
:100A95003EC394064003020B68745C2EF8E6FFD350
:100AA500947A501FEFC394305003BF2D16EFD394A3
:100AB500394005EF9441400BEFD3945A4007EF942A
:100AC5006150027F20746A253EF8A607053E0E8018
:100AD500BEAE3FAF40E4FCFDAB24AA23A922A8216A
:100AE500D3121330404DAB40AA3FE4FDFF12200660
:100AF500E53370087D04FF1220E38011E511B40190
:100B05000CC3740595202512247FF87620753E01C7
:100B1500E53ED39520504CC37405953E247FF8E6F9
:100B2500FFE53EFDC374069DFD746A2DF8A6070515
:100B35003E80DDE520B40209786E766F0876768012
:100B450022E520B40309786D76460876558011E5CF
:100B550020C39404400D786C764608765508764C8B
:100B650008764C7877E6B401087868E6D3940A509D
:100B75000D7877E670127868E6D39404400AE5109C
:100B850020E7084310C0800353103F7877E67015BF
:100B95007870E6D39404400DE5337009E51020E044
:080BA50007431003225310FC6A
:010BAD002225
:10216000900029E075F011A4242AF582E43400AF30
:0521700082FE0209617E
:070003007E017F5302096139
:06224900E4F53E0220AAAC
:1018B600EF14B4070050519018CB75F003A4C583FC
:1018C60025F0C583730218E00218E70218EE021825
:1018D600F50218FC021903021907D2A7D2A6C28282
:1018E60022D282D2A6C2A722D282D2A7C2A622D250
:1018F600A6C282C2A722D2A7C282C2A622D2828052
:0F19060002C282C2A7C2A622D282D2A7D2A62232
:101B8800E53724FA601214601924027026E53A2514
:101B9800E0FDE53933FC801FAE39AF3A7C007D05A6
:101BA8008008AE39AF3A7C007D0A1212C9AC06AD86
:0B1BB800078004AC39AD3A8C3B8D3C3B
:011BC30022FF
:101BC400E53724FD601214601924027026E53A25D5
:101BD400E0FDE53933FC801FAE39AF3A7C007D056A
:101BE4008008AE39AF3A7C007D0A1212C9AC06AD4A
:0B1BF400078004AC39AD3A8C3B8D3CFF
:011BFF0022C3
:101DE300E5357003FF8006E5377005AF350218B699
:101DF300E53C453B7019E538700B753801AF35127A
:101E030018B6021B88E4F538FF1218B6121BC42259
:10214900E4F530F532F534F533FF122189751D03B5
:07215900751EE8E4F53522D4
:101C0000122118121F707F381221F77F011218B6A7
:101C10007FF47E011221317F021218B67FF47E011B
:101C20001221317F031218B67FF47E01122131E4B4
:0A1C3000FF1218B6121F1F0221490F
:10218900750E018F15EF64016008EF64036003E4C5
:03219900F510221C
:10170A00E50E7070E530B40107E51C7067022149E7
:10171A00E53264016006E53364017034E51C70113A
:10172A00E532B4010302208DE4F512F533750E019A
:10173A0022E51A4519703D750E01E51170097511FA
:10174A0001F519751A9622E4F511F519751AFA2296
:10175A00E50F6020E51E451D700AF50F8536357FB9
:10176A0001022189E51A4519700A750E01F51975E4
:05177A001A64051422B1
:1016880012170AE50E607AE4F50EE51514B40C009D
:1016980050699016A875F003A4C58325F0C5837317
:1016A8000216CC0216D10216D60216DB0216E0028A
:1016B80016E50216EA0216EF0217030216F90216D9
:1016C800F40216FE1200038035121A20803012210F
:1016D80060802B1219728026122255802112225AFC
:1016E800801C12225F8017122264801212226980E5
:1016F8000D122249800812000E80031220AA12003F
:021708000A22B3
:06224F00202020563D3462
:10177F00E490014FF0900151F090018DF0F50CF5D0
:10178F000A900152F0FFEF75F011A42453F582E493
:10179F003401F583E4F0EF75F011A42454F582E4DD
:1017AF003401F583E4F0A3F0EF75F011A42491F563
:1017BF0082E43401F583E4F0EF75F011A42492F57F
:1017CF0082E43401F583E4F0A3F0EF75F011A42463
:1017DF0094F582E43401F583E4F00FBF02A8E4F539
:0117EF000FEA
:0117F00022D6
:101ECB007877E6B4020FE4F51F752005F524F523AA
:101EDB00752201800F751F02752004E4752410759F
:0B1EEB002327F522F521F525F526221E
:0D21C0007F547E03EF1F70011EEF4E70F77D
:0121CD0022EF
:10213100AD07AC06D3ED9400EC9400400A1221C027
:08214100ED1D70F01C80ED2281
:0E21CE001221EAD282D2A7D2A6D2A1D2A22298
:10219C00E58954F04401F589758CF8758ACCD2A97F
:0321AC00D28C22B0
:03000B000214D507
:1014D500C0E0C0F0C083C082C0D075D000C000C0DD
:1014E50001C002C003C004C005C006C007758CF862
:1014F500758ACC90011AE0600D90014DE0FF14F063
:10150500EF7003A304F0AF2C052CEFC39403400642
:10151500752A01752C00E51A45196008E51A151A92
:1015250070021519E53C453B6008E53C153C700229
:10153500153BE51B6002151BAF3D153DEF7017759B
:101545003D64E51C6002151CE51E451D6008E51E91
:10155500151E7002151D121A6ED007D006D005D0C3
:1015650004D003D002D001D000D0D0D082D083D017
:04157500F0D0E032A0
:10217500E4F50BF50D900028F0753D64F51012217E
:042185004902177F75
:101D7F001221CE7FC87E00122131C2AF1222401233
:101D8F00219C12202A121ECB1221AF122175D2AF25
:101D9F00121C00C280121DE3121425121688121F86
:031DAF004880F277
:101F9700E589540F4420F5897598D075B810538793
:101FA7007F75A240438E40538EFE758BF7758DF774
:071FB700C2ABD28ED2AC22B6
:1021AF00121F97E490011AF090014EF090014DF03C
:0121BF0022FD
:03002300021B03BA
:101B0300C0E0C083C082C0D075D000C00730982D1C
:101B1300C29890011AE0C39432502290014EE064BF
:101B230001601A90011AE0FF04F0741B2FF582E4A0
:101B33003401F583E599F090014D7402F0D007D09C
:081B4300D0D082D083D0E03243
:101E9E00C2A1D280EDD39400401E12124FFF20D06B
:101EAE0004C29B8002D29B8F993099FDC299740116
:0D1EBE0029F9E43AFA1D80DCC280D2A1228D
:040DAE008E408F41A3
:100DB2008541828E83E0FFC4135407F536E50F7038
:100DC20003853635EF131313540314600F146014A4
:100DD20024027018753900753A50801675390075FD
:100DE2003AA0800E753901753A4080067539027550
:100DF2003A80EF5407F537E4F53BF53CF538854189
:100E020082854083A3E0540FFF854182854083A3FE
:100E1200A3E0900151F0E490014FF090018DF09029
:100E22000151E02F900150F0E4900028F0F5347D5C
:100E320004854182854083A3A3A3E0F990014FE09A
:100E420075F011A42453F582E43401AF82F5428F88
:100E520043F583E5822404F582E43583F583E9F0E2
:100E6200E4FFEFC3995036EFC3940C5030E5412DA7
:100E7200F582E43540F583E5822FF582E43583F58A
:100E820083E0FEE5432405F582E43542F583E582FD
:100E92002FF582E43583F583EEF00F80C5E92DFD51
:100EA2002541F582E43540F583E08543828542831E
:100EB200F0E5412DF582E43540F583A3E0FEE541FE
:100EC2002DF582E43540F583A3A3E07C002400FFE6
:100ED200EC3E854382854283A3F0A3EFF090014F5D
:100EE200E0700A900154E0F508A3E0F50990014F83
:080EF200E004F07F01022189F8
:10040800E4F543F544900124E0540FF540A3E0904F
:100418000151F0E50A14601F04703DE490014FF0AB
:1004280090018DF0900151E02540900150F0E4904A
:100438000028F0F534802690018DE014F0E0B40136
:10044800157E017F917C017DA21215799001A5E0AE
:10045800900194F080078000E490018DF0E540243D
:10046800FE700302055304600302067790014FE013
:10047800C394024002E4F090014FE075F011A42407
:1004880053F582E43401AD82FC900120E0700775D9
:10049800440BF5418010900120E0B4010975440C2B
:1004A800900126E0F5418D828C83ED2404F582E4E9
:1004B8003CF583E541F0E4F543E543C39541503409
:1004C800E543C3940C502DE5442543241BF582E4F1
:1004D8003401F583E0FF8D828C83ED2405F582E4F9
:1004E8003CF583E5822543F582E43583F583EFF017
:1004F800054380C5E5412544F544241BF582E434D1
:1005080001F583E08D828C83F0741C2544F582E428
:100518003401F583E0FE741D2544F582E43401F5C9
:1005280083E07A002400FFEA3E8D828C83A3F0A347
:10053800EFF090014FE0700A900154E0F508A3E055
:10054800F50990014FE004F0020677900120E07071
:100558000975440BF541F542801B900120E0B40178
:100568001475440C900126E0F541900121E0C395F3
:100578004124F5F542900157E541F0E4F543E543A0
:10058800C395415027E543C3940C5020E5442543C7
:10059800241BF582E43401F583E0FF74582543F504
:1005A80082E43401F583EFF0054380D2E541254428
:1005B800F544241BF582E43401F583E0900153F0FF
:1005C800741C2544F582E43401F583E0FE741D258E
:1005D80044F582E43401F583E07C002400FFEC3E1E
:1005E800900154F0A3EFF074032544F5449001689A
:1005F800E542F0E4F543E543C395425027E543C39C
:10060800940C5020E5442543241BF582E43401F57D
:1006180083E0FF74692543F582E43401F583EFF044
:10062800054380D2E5422544F544241BF582E43491
:1006380001F583E0900164F0741C2544F582E434EC
:1006480001F583E0FE741D2544F582E43401F58349
:10065800E07C002400FFEC3E900165F0A3EFF090F1
:100668000154E0F508A3E0F50990014F7402F090F9
:100678000123E0C4135407F536E50F7003853635BA
:10068800900123E0131313540314600F146014240F
:10069800027018753900753A508016753900753A28
:1006A800A0800E753901753A408006753902753A91
:1006B80080900123E05407F537E4F53BF53CF53825
:0506C800E50FB402384B
:1006CD00C37440951EF546741F951DF5457875E666
:1006DD002401F548E433F547C3E5469548E54595CE
:1006ED00474008E4F50F853635800DC3E54895463E
:0806FD00F51EE5479545F51DCA
:09070500E50F70057F0112218946
:01070E0022C8
:100EFA00E4900152F07873E69000E8F0A37403F0EE
:100F0A009000E714F0E50B70239000EAF07E007F72
:100F1A00E87D03121D188E408F419000EBEFF0E53B
:100F2A0040A3F09000E77405F0021025E50B640376
:100F3A00600302102590018DE0702B9000EA740284
:100F4A00F0A304F0E4A3F07E007FE87D05121D18EB
:100F5A008E408F419000EDEFF0E540A3F09000E75E
:100F6A007407F002102590018DE06401704A900028
:100F7A00EA7404F0A314F0900194E0C454F0FF90D2
:100F8A00018DE04F9000ECF0900192E09000EDF0BE
:100F9A00900192E0A3E09000EEF07E007FE87D07EA
:100FAA00121D188E408F419000EFEFF0E540A3F03C
:100FBA009000E77409F0806390018DE06402705B31
:100FCA009000EA7406F0A37403F09001A5E0C454FB
:100FDA00F0FF90018DE04F9000ECF0900192E090CC
:100FEA0000EDF0900192E0A3E09000EEF09001A3F2
:100FFA00E09000EFF09001A3E0A3E09000F0F07E13
:10100A00007FE87D09121D188E408F419000F1EF94
:10101A00F0E540A3F09000E7740BF07B017A0079C9
:09102A00E89000E7E0FD021E9EC3
:101E13007873E69000E8F0A37403F0E4A3F07E0087
:101E23007FE87D03121D189000EBEFF0A3EEF09016
:101E330000E77405F07B017A0079E8E0FD021E9E5D
:0E21DC007B017A01791B90011AE0FD021E9E24
:101DB2007873E69000E8F0A37490F0A3E50AF07E51
:101DC200007FE87D03121D189000EBEFF0A3EEF008
:101DD2009000E77405F07B017A0079E8E0FD021ECD
:011DE2009E62
:101CAC007873E69000E8F0A37410F0E4A3F0A3F0CE
:101CBC00A3F0A37405F07E007FE87D06121D18903A
:101CCC0000EEEFF0A3EEF09000E77408F07B017AE1
:081CDC000079E8E0FD021E9E04
:0D22040012214912177FE47873F6021AB90F
:100026007873E6F53EE4F53F7E017F1B90011AE00A
:1000360024FEFD121D18AD07AC0690011AE0241926
:10004600F582E43401F583E0FB7A0090011AE0249E
:100056001AF582E43401F583E0FEE42BFBEA3EFA6E
:10006600ED6B7002EC6A6003020407C2A290011BEA
:10007600E060030201EBA3E0640660030201EB907B
:10008600011AE0640860030201EB90011EE07006AD
:1000960012220402040590011EE0B40121E50C645D
:1000A600027003020405750C01900120E07879F6D0
:1000B600753502E4F5377F041221890204059001A3
:1000C6001EE064106003020154A3E0FEA3E07C007E
:1000D6002400F518EC3EF517E4F53F7473253FF858
:1000E600E6FF7479253FF8A607053FE53FB406EB22
:1000F600E518451770047F048048E518B41109E532
:1001060017B427047F05803AE518B41209E517B439
:1001160027047F06802CE518B41309E517B42704D5
:100126007F07801EE518B41409E517B427047F0875
:100136008010E518B41509E517B427047F0B800273
:100146007F0A122189753502E4F53702040590010C
:100156001EE0B4110912214912177F02040590010D
:100166001EE0B42010900120E07874F67F0512217D
:10017600897874806490011EE0B4210B900120E020
:100186007875F67F06802290011EE0B4220B90015E
:1001960020E07876F67F07801090011EE0B42320D9
:1001A600900120E07877F67F08122189753502756F
:1001B6003701E4F53BF53CF538F539753A64801FAF
:1001C60090011EE064246003020405900120E0789B
:1001D60078F67F0B1221897878E6F535E4F5371243
:1001E6001AB902040590011BE0653E600302036E26
:1001F600E53E700302036EA3E024FA603724F6702E
:10020600030202E8240D600302040590011FE0705A
:100216000BA3E0B40106121E1302040590011FE0B1
:100226006003020405A3E064036003020405120EE2
:10023600FA02040590011AE064086003020405123C
:1002460021DC90011EE07002800C90011EE064012A
:100256006004E0B4020C12214912177FE4F50B0288
:10026600040590011EE0B4201C900120E07005F505
:100276000D020405900120E0640160030204057587
:100286000D0102040590011EE064306003020405BE
:10029600900120E06401600302040590018DE0B442
:1002A600010890014FE06401601490018DE0640242
:1002B600600302040590014FE0600302040590010B
:1002C6008DE014F0E0640160030204057E017F9175
:1002D6007C017DA21215799001A5E0900194F002AF
:1002E6000405900122E07012900121E0B40A0B127D
:1002F6001CAC12214912177F8065900120E0700B1B
:10030600A3E0B40A06A3E06403602C900120E06435
:1003160001704C90011AE024F7FF900121E06F7004
:100326003EA3E064037038900126E0FF900121E0CF
:10033600C39FC394084028900124E0FFC4540FF5DE
:100346000AE50BB4030D900152E0B40106121DB28A
:10035600020405121CAC1204089001527401F090BC
:100366000122E0F50B02040590011BE064F860032E
:10037600020405A3E064106003020405900120E076
:100386006402707B90011AE024F7FF900121E06F70
:10039600706DA3E0702BF53F900124E0FFE53FC3AD
:1003A6009F505C7425253FF582E43401F583E0B562
:1003B6003E0B12214912177FE4F50B8042053F8060
:1003C600D7900122E064037036F53F900124E0FFE8
:1003D600E53FC39F50297425253FF582E43401F596
:1003E60083E0B53E16900124E02425F582E434012D
:1003F600AF82FE120DAE750B038004053F80CCD292
:01040600A253
:0104070022D2
:101F480090014EE06021E5326401601BE5306401D8
:101F5800601590011AE0C394064003120026E4902D
:081F6800014EF090011AF02275
:100BAE0000C1814001C0804101C0804100C181402F
:100BBE0001C0804100C1814000C1814001C080411F
:100BCE0001C0804100C1814000C1814001C080410F
:100BDE0000C1814001C0804101C0804100C18140FF
:100BEE0001C0804100C1814000C1814001C08041EF
:100BFE0000C1814001C0804101C0804100C18140DF
:100C0E0000C1814001C0804101C0804100C18140CE
:100C1E0001C0804100C1814000C1814001C08041BE
:100C2E0001C0804100C1814000C1814001C08041AE
:100C3E0000C1814001C0804101C0804100C181409E
:100C4E0000C1814001C0804101C0804100C181408E
:100C5E0001C0804100C1814000C1814001C080417E
:100C6E0000C1814001C0804101C0804100C181406E
:100C7E0001C0804100C1814000C1814001C080415E
:100C8E0001C0804100C1814000C1814001C080414E
:100C9E0000C1814001C0804101C0804100C181403E
:100CAE0000C0C101C30302C2C60607C705C5C404FE
:100CBE00CC0C0DCD0FCFCE0E0ACACB0BC90908C86E
:100CCE00D81819D91BDBDA1A1EDEDF1FDD1D1CDC5E
:100CDE0014D4D515D71716D6D21213D311D1D010CE
:100CEE00F03031F133F3F23236F6F737F53534F4BE
:100CFE003CFCFD3DFF3F3EFEFA3A3BFB39F9F8382E
:100D0E0028E8E929EB2B2AEAEE2E2FEF2DEDEC2C1D
:100D1E00E42425E527E7E62622E2E323E12120E08D
:100D2E00A06061A163A3A26266A6A767A56564A47D
:100D3E006CACAD6DAF6F6EAEAA6A6BAB69A9A868ED
:100D4E0078B8B979BB7B7ABABE7E7FBF7DBDBC7CDD
:100D5E00B47475B577B7B67672B2B373B17170B04D
:100D6E00509091519353529296565797559594543D
:100D7E009C5C5D9D5F9F9E5E5A9A9B5B99595898AD
:100D8E00884849894B8B8A4A4E8E8F4F8D4D4C8C9D
:100D9E00448485458747468682424383418180400D
:021D1800A9051B
:101D1A007DFF7CFFAB0119EB60218F828E83E06C23
:101D2A00754200F5430FBF00010EAB43EB900BAEBB
:101D3A00936DFCEB900CAE93FD80D9EDFEAD04EDF6
:011D4A00FF99
:011D4B002275
:03000000022229B0
:0C222900787FE4F6D8FD75818E021D7FE1
:10124F00BB010689828A83E0225002E722BBFE029D
:09125F00E32289828A83E49322D0
:10126800BB010CE58229F582E5833AF583E022503B
:1012780006E92582F8E622BBFE06E92582F8E22285
:0D128800E58229F582E5833AF583E493229F
:10129500BB010689828A83F0225002F722BBFE0138
:0212A500F32232
:1012A700F8BB010DE58229F582E5833AF583E8F07D
:1012B700225006E92582C8F622BBFE05E92582C829
:0212C700F22211
:1012C900EF8DF0A4A8F0CF8CF0A428CE8DF0A42E39
:0212D900FE22F3
:1012DB00BC000BBE0029EF8DF084FFADF022E4CCF7
:1012EB00F875F008EF2FFFEE33FEEC33FCEE9DECC0
:1012FB00984005FCEE9DFE0FD5F0E9E4CEFD22ED06
:10130B00F8F5F0EE8420D21CFEADF075F008EF2F4F
:10131B00FFED33FD4007985006D5F0F222C398FD40
:05132B000FD5F0EA22DD
:10133000EB9FF5F0EA9E42F0E99D42F0E89C45F013
:01134000228A
:00000001FF
