:0300000002208556
:0C208500787FE4F6D8FD75818E021CBD4A
:100BAE0000C1814001C0804101C0804100C181402F
:100BBE0001C0804100C1814000C1814001C080411F
:100BCE0001C0804100C1814000C1814001C080410F
:100BDE0000C1814001C0804101C0804100C18140FF
:100BEE0001C0804100C1814000C1814001C08041EF
:100BFE0000C1814001C0804101C0804100C18140DF
:100C0E0000C1814001C0804101C0804100C18140CE
:100C1E0001C0804100C1814000C1814001C08041BE
:100C2E0001C0804100C1814000C1814001C08041AE
:100C3E0000C1814001C0804101C0804100C181409E
:100C4E0000C1814001C0804101C0804100C181408E
:100C5E0001C0804100C1814000C1814001C080417E
:100C6E0000C1814001C0804101C0804100C181406E
:100C7E0001C0804100C1814000C1814001C080415E
:100C8E0001C0804100C1814000C1814001C080414E
:100C9E0000C1814001C0804101C0804100C181403E
:100CAE0000C0C101C30302C2C60607C705C5C404FE
:100CBE00CC0C0DCD0FCFCE0E0ACACB0BC90908C86E
:100CCE00D81819D91BDBDA1A1EDEDF1FDD1D1CDC5E
:100CDE0014D4D515D71716D6D21213D311D1D010CE
:100CEE00F03031F133F3F23236F6F737F53534F4BE
:100CFE003CFCFD3DFF3F3EFEFA3A3BFB39F9F8382E
:100D0E0028E8E929EB2B2AEAEE2E2FEF2DEDEC2C1D
:100D1E00E42425E527E7E62622E2E323E12120E08D
:100D2E00A06061A163A3A26266A6A767A56564A47D
:100D3E006CACAD6DAF6F6EAEAA6A6BAB69A9A868ED
:100D4E0078B8B979BB7B7ABABE7E7FBF7DBDBC7CDD
:100D5E00B47475B577B7B67672B2B373B17170B04D
:100D6E00509091519353529296565797559594543D
:100D7E009C5C5D9D5F9F9E5E5A9A9B5B99595898AD
:100D8E00884849894B8B8A4A4E8E8F4F8D4D4C8C9D
:100D9E00448485458747468682424383418180400D
:021A7900A905BD
:101A7B007DFF7CFFAB0119EB60318F828E83E06CB5
:101A8B00754200F5430FBF00010E74AE2543F5827E
:101A9B00740B3542F583E4936DFC74AE2543F582EC
:101AAB00740C3542F583E493FD80C9EDFEAD04ED76
:011ABB00FF2B
:011ABC002207
:101F4000000002000400060008000A000C000E0059
:0C1F5000FF070501020801000500000069
:101E5800E4F5C275C78375C501AE02AF018E5A8F0E
:101E68005B855AC3855BC475C65A75C6A500122022
:031E780091AFC265
:011E7B002244
:101EE60075C78375C502AE02AF018E5A8F5B855AE0
:101EF600C3855BC48DC275C65A75C6A500022091FE
:101F770075C78375C5038E528F538552C38553C466
:0A1F870075C65A75C6A50002209128
:0C209100E4F5C7F5C5F5C6F5C3F5C4229B
:061BAC008B528A5389549C
:101BB200E4F559E559C395585028AB55AA56A9578B
:101BC200121E58AB52AA53A954855982758300EF4D
:101BD2001212A774012557F557E43556F5560559E3
:021BE20080D1B0
:011BE40022DE
:061BE5008B528A53895463
:101BEB00E4F559E559C395585028AB52AA53A9545B
:101BFB00855982758300121268FDAB55AA56A957F9
:101C0B00121EE674012557F557E43556F55605595E
:021C1B0080D176
:011C1D0022A4
:0720A900E493FE740193FFB4
:0420B000121F772262
:101033008F3FEFC3940640037FFF22901F40E4934A
:10104300FE740193AA067555008A56F5577558061E
:101053007B007A007940121BAC901F42E493FE742C
:101063000193AA067555008A56F5577558067B00F5
:101073007A007946121BAC901F44E493FE740193EB
:10108300AA067555008A56F5577558067B007A00EF
:10109300794C121BAC7446253FF8E6FF7440253F9C
:1010A300F8E6FE6F7039744C253FF8E66F602B74D9
:1010B3004C253FF8A606901F441220A9901F44E434
:1010C30093FE740193AA067555008A56F557755811
:1010D300067B007A00794C121BE5744002115674AA
:1010E3004C253FF8E6FF7440253FF8E6FE6F702F6E
:1010F3007446253FF8A606901F421220A9901F426E
:10110300E493FE740193AA067555008A56F5577544
:1011130058067B007A007946121BE57440803474CC
:1011230046253FF8E6FF7440253FF8A607901F4089
:101133001220A9901F40E493FE740193AA067555EB
:10114300008A56F5577558067B007A007940121BC2
:08115300E57446253FF8E6FFB4
:01115B002271
:101D8100E4FFEF901F5093FE74732FF8E6D39E404B
:101D91000CEF901F5693FE74732FF8A60674732FE1
:0D1DA100F8E6FE74792FF8A6060FBF06D5F0
:011DAE002212
:1019E700121D81E4F540E54025E02440F582E4340A
:1019F7001FF5831220A9E54025E02440F582E43451
:101A07001FF583E493FE740193AA067555008A5661
:101A1700F5577558067B007A007973121BE5054068
:0A1A2700E540C3940340BF021FFC1A
:101EC400E4F53EAF3E1210337473253EF8A60705C1
:101ED4003EE53EC3940640EB7873E6700276010259
:021EE4001D815E
:0C209D0004050607080B03010101010106
:081579008E498F4A8C4B8D4C0A
:10158100E54C2404F582E4354BF583E0FFE54A247C
:1015910004F582E43549F583EFF0FFD3940C400262
:1015A1007F0CE4FEEEC39F5031E54C2405F582E447
:1015B100354BF583E5822EF582E43583F583E0FD35
:1015C100E54A2405F582E43549F583E5822EF58265
:1015D100E43583F583EDF00E80CA854C82854B831B
:1015E100E0854A82854983F0854C82854B83A3E05F
:0F15F100FFA3E0854A82854983A3CFF0A3EFF0E3
:0116000022C7
:1017D000900008E0C39405501DE075F011A4240AA0
:1017E000F582E43400AF82FE7C017D3312157990DE
:1017F0000008E004F022E4FBEB75F011A4240AF5E4
:1018000082E43400AF82FEEB75F011A4241BF58254
:10181000E43400AD82FC1215790BBB04DB7E007F43
:0E1820004E7C017D331215799000087405F09E
:01182E002297
:021341008F41DA
:10134300E533700302142490012FE0F54290013439
:10135300E0F543A3E0F544E542D3940050030214BF
:1013630024E542D394024003021424AE43AF44E481
:10137300FCFDAB24AA23A922A82112133050030297
:101383001424E5207003021424E5128520F08485DB
:10139300F012C3740595202512F542AB44AA43E429
:1013A300FDFF121EA0747F2542F8E6FFE5416003AE
:1013B3000F80011FEFD39409400AE5416004E4FF65
:1013C30080027F09A6077880E6FF7E007C037DE824
:1013D3001212C9AA06AB07787FE6FF7E007C277D41
:1013E300101212C9EF2BFDEE3AFC7881E675F0641A
:1013F300A42DFDE5F03CFC08E675F00AA42DFFE5FD
:10140300F03CFE08E67C002FF544EC3EF5439001EA
:1014130034F0A3E544F0E4F511751C327F01121F8B
:01142300E9DF
:0114240022A5
:02176A008F41AD
:10176C0090012FE0FF900134E0FCA3E0FDEFD39457
:10177C00004050EFD39402504AAE04AF05E4FCFD98
:10178C00AB24AA23A922A8211213304036E52060ED
:10179C0032E53370028019E541600E0512E512C383
:1017AC0095204011E4F512800CAF121512EF700564
:1017BC00E52014F512753301751101751C327F018A
:0317CC00121FE900
:0117CF0022F7
:02070F008F4019
:10071100E530B40109E5406440600302095DE52B61
:10072100B4010EE54064016008E4F52BAF15020940
:1007310055E54014700302086D24E170030207F2CD
:1007410024E0700302082324306003020960E529D4
:1007510064017038F52990012FE07013900131E0A8
:10076100700D753001F531751C107F0C0209559023
:10077100012FE0D3940050030209607876E61460FB
:1007810003020960752B017F0102095590012FE0D9
:10079100D394004012900134E508F0A3E509F05329
:1007A10010FC7F0102095590012FE06003020960EE
:1007B100900131E06003020960900008E0D39400E9
:1007C1005003020960E534700F753401E014A3F0A1
:1007D100E4F5107F03020955900009E07005F53436
:1007E10002095D900009E014F0E4F5107F030209AD
:1007F10055E529B4011EE4F52990012FE0D39400B9
:100801005003020960E4900134F0A3F05310FC7F1F
:1008110001020955E53464017003020960E4FF0235
:100821001341E53464017003020960E5306401702D
:1008310036AF310531EFC394034024E4F53075320E
:1008410001751C32751202F513FF74732FF8E6FE61
:1008510074792FF8A6060FBF06F07F0402095575BB
:100861001C087F0C020955E4FF02176AE4F5339076
:10087100012FE0D394005003020958E50F600302F1
:10088100095890015DE09402506CE075F011A424C8
:1008910061F582E43401AF82FE7C017D331215796A
:1008A100E52B90015DB40113E075F011A42464F50A
:1008B10082E43401F5837401F08010E075F011A435
:1008C1002464F582E43401F583E4F090015DE004F1
:1008D100F01217D090012FE0B402157E017F337C16
:1008E100017D44121579900134E0F508A3E0F50982
:1008F10090012FE014F0E52BB4010BE490012FF0EF
:10090100900131F0F52B90012FE07012900131E050
:10091100700C121FA97874E6F535E4F537229001C1
:100921002FE0D394004010750F017875E62401F58E
:100931001EE433F51D8009750F02751D1F751E40DC
:10094100753D64751900751A64751406853536E4AC
:0F095100F5357F02021FE9E534B40103121FA937
:010960002274
:101F0600121FA9E51C6015E4FF74792FF8E6FE742C
:0C1F1600732FF8A6060FBF06F01219E7A3
:011F2200229C
:02115C008F40C2
:10115E00E51314603D14604814605314605E24045B
:10116E0070687541097879E6FB7A00E4FDFF121884
:10117E008EE512D3940240057512028007E51270B7
:10118E0003754102747F2512F9E4F542F543894453
:10119E00804475420075430075447A754107803668
:1011AE0075420075430075447B7541058028754274
:1011BE000075430075447C754101801A75420075B7
:1011CE00430075447D754102800C754200754300E5
:1011DE0075447E754108AB42AA43A94412124FFFD3
:1011EE00E54060030F80011FEFD39541400AE540B3
:1011FE006004E4FF8002AF41EF121295E5137031E7
:10120E007880E675F00AA4FDACF018E675F064A4DB
:10121E002DFFE5F03CFE7881E67C002FFFEC3EFED4
:10122E00D3EF94FFEE940040047E007FFF7879A602
:10123E0007E4F511751C32E51390209D93FF021FF4
:01124E00E9B6
:101C5600EF600E0513E513C39406400FE4F51380F9
:101C66000AAF131513EF7003751305E5139020A340
:101C76009314F512E4F511751C32E51390209D932B
:041C8600FF021FE951
:101ABD00EF6015AF13EF9020A393FF0512E512C34E
:101ACD009F4016E4F5128011AF121512EF700AAF98
:101ADD0013EF9020A39314F512E513700375110104
:0D1AED00751C32E51390209D93FF021FE948
:101DAF00EF14602524E1601724E060182430701CC4
:101DBF00E529B40105E4F529800F7F01021C56E4E3
:0D1DCF00FF02115CE4FF021ABD121F062284
:101E7C008F3FE50CB4010F7879E67873F61219E709
:101E8C00753503750C02E532AF3FB40103021DAF8B
:041E9C0012070F22F8
:0D203300E4FFD2B3000000000020B3010F55
:01204000227D
:10142500E50D640170030214D4E52A70030214D497
:10143500E4F52A1220338F3EE53E652E6004853E95
:101445002E22E53E702FE52764017020E528701CEB
:10145500E52FB410047F108010E52FB4200E900105
:101465002FE0D3940040057F20121E7CE4F527F57C
:1014750029F5288024E5277024752701F52DE53EFB
:1014850064106005E53EB4200BE53EB4200B9001E9
:101495002FE07005AF3E121E7C853E2F22E52864A5
:1014A50001602CAF2D052DEFC394C840227529018D
:1014B500E4F52DE53E6410600EE53EB4200E900186
:0F14C5002FE0D394004005AF3E121E7C75280126
:0114D40022F5
:01000A0022D3
:0120D90022E4
:0120DA0022E3
:0120DB0022E2
:0120DC0022E1
:0120DD0022E0
:0120DE0022DF
:04188E008F498D4AA7
:101892007C037DE8AF03AE021212DBAA04AB057C27
:1018A200007D64AF03AE021212DBE54A2FFFAE49A0
:1018B2000549747F2EF8A607AE02AF037C007D6453
:1018C2001212DBAF05EF75F00A84254AFEAD490519
:1018D20049747F2DF8A606EF75F00A84E54A25F0D3
:0818E200FF747F2549F8A607F9
:0118EA0022DB
:101C8A008F478D487C277D10AF03AE021212DBAA64
:101C9A0004AB057C037DE8AF03AE021212DBE54814
:101CAA002FFFAE470547747F2EF8A607AD48AF470A
:031CBA0002188E7F
:101EA0008F458D467C277D10AF03AE021212DBE515
:101EB000462FFFAE450545747F2EF8A607AD46AF09
:041EC00045021C8A31
:101F5C00E4FEEEC39D5013EF2E247FF8E6FC6430B4
:0A1F6C006003EC700576200E80E89B
:011F76002248
:10000E007F05746A2FF8762D0FBF06F6E531600472
:04001E00786FA63120
:0100220022BB
:101F230078687604E4FF745C2FF876200FBF0CF614
:0C1F33007F05746A2FF876200FBF06F6B9
:011F3F00227F
:1018EB00121F23E520C39405500DE51FC39402403E
:1018FB000DE52094034007786F7641087664787085
:10190B0076037879E6FB7A00E4FDFF12188EE53258
:10191B0070087D02FF121F5C800CE511B401077487
:10192B007F2512F87620787FE6786DF67880E6785A
:09193B006EF67881E6786FF62261
:10194400AE07121F23E51FC394025007E520C3947A
:10195400054004786F8002786D7646EE243008F6F0
:1019640078707601E5326004E5117028EE24FE609B
:101974001114601214601314601424047016787A1D
:10198400800E787B800A787C8006787D8002787E61
:05199400E6786FF62269
:0520C0007F010219443C
:0520C5007F0202194436
:0520CA007F0302194430
:0520CF007F040219442A
:0520D4007F0502194424
:10199900E514D3940640037514057F05EFC3951428
:1019A9005009746A2FF8762D0F80F1AF14EFC394A4
:1019B900065009746A2FF876200F80F17870760442
:1019C90078687604785C76570876610876690876CF
:0D19D900747F04745C2FF876200FBF0CF6AD
:0119E60022DE
:0C206B007E05746A2EF8A6070EBE06F66D
:012077002246
:04096100AD07AC062C
:10096500121F238D828C83E0FFA3E0F53FA3E0F502
:1009750040ED2404F582E43CF583E0FEE51F6403C5
:100985007039EE2402FBE433FAED2BF582EC3AF5EF
:1009950083E0786FF6EE2403FBE433FAED2BF58262
:1009A500EC3AF583E008F6EE2404FBE433FAED2B8C
:1009B500F582EC3AF583E008F68015E51FB40210E0
:1009C500EFF4600CEFC4540F786FF6EF540F08F690
:1009D500D3E540940FE53F9427400678707605806F
:1009E50035D3E54094E7E53F9403400678707604F7
:1009F5008024D3E5409463E53F9400400678707603
:100A0500038013D3E5409409E53F940078704004D2
:100A15007602800276017870E6D395204002A62002
:100A25007868A606E4F53EE53EC39E5021ED240513
:100A3500F582E43CF583E582253EF582E43583F5D0
:100A450083E0FB745C253EF8A603053E80D9E52BC3
:100A5500B40121E47870F6753E01E53ED39520405A
:100A650003020B68C37406953EFD746A2DF8762D56
:100A7500053E80E67877E6640170567870F6EED329
:100A85009406400674FA2EFE8002E4FEE4F53EE587
:100A95003EC394064003020B68745C2EF8E6FFD350
:100AA500947A501FEFC394305003BF2D16EFD394A3
:100AB500394005EF9441400BEFD3945A4007EF942A
:100AC5006150027F20746F253EF8A607053E0E8013
:100AD500BEAE3FAF40E4FCFDAB24AA23A922A8216A
:100AE500D3121330404DAB40AA3FE4FDFF121EA0C8
:100AF500E53370087D04FF121F5C8011E511B40118
:100B05000CC3740595202512247FF87620753E01C7
:100B1500E53ED39520504CC37405953E247FF8E6F9
:100B2500FFE53EFDC374069DFD746A2DF8A6070515
:100B35003E80DDE520B40209786E766F0876768012
:100B450022E520B40309786D76460876558011E5CF
:100B550020C39404400D786C764608765508764C8B
:100B650008764C7877E6B401087868E6D3940A509D
:100B75000D7877E670127868E6D39404400AE5109C
:100B850020E7084310C0800353103F7877E67015BF
:100B95007870E6D39404400DE5337009E51020E044
:080BA50007431003225310FC6A
:010BAD002225
:101FC000900009E075F011A4240AF582E43400AF12
:051FD00082FE02096120
:070003007E017F3302096159
:0620B400E4F53E021F23CB
:10182F00EF14B40700505190184475F003A4C5830A
:10183F0025F0C58373021859021860021867021841
:10184F006E02187502187C021880D2A7D2A6C28227
:10185F0022D282D2A6C2A722D282D2A7C2A622D2D7
:10186F00A6C282C2A722D2A7C282C2A622D28280D9
:0F187F0002C282C2A7C2A622D282D2A7D2A622BA
:101AFA00E53724FA601214601924027026E53A25A3
:101B0A00E0FDE53933FC801FAE39AF3A7C007D0534
:101B1A008008AE39AF3A7C007D0A1212C9AC06AD14
:0B1B2A00078004AC39AD3A8C3B8D3CC9
:011B3500228D
:101B3600E53724FD601214601924027026E53A2563
:101B4600E0FDE53933FC801FAE39AF3A7C007D05F8
:101B56008008AE39AF3A7C007D0A1212C9AC06ADD8
:0B1B6600078004AC39AD3A8C3B8D3C8D
:011B71002251
:101D2100E5357003FF8006E5377005AF3502182FE2
:101D3100E53C453B7019E538700B753801AF35123C
:101D4100182F021AFAE4F538FF12182F121B362247
:101FA900E4F530F532F534F533FF121FE9751D03F9
:071FB900751EE8E4F5352276
:101B72001220DA1220DB7F3812206B7F0112182F1D
:101B82007FF47E01121F917F0212182F7FF47E01D3
:101B9200121F917F0312182F7FF47E01121F91E40E
:0A1BA200FF12182F1220DC021FA909
:101FE900750E018F15EF64016008EF64036003E467
:031FF900F51022BE
:10168300E50E7070E530B40107E51C7067021FA911
:10169300E53264016006E53364017034E51C7011C2
:1016A300E532B40103021F06E4F512F533750E01AA
:1016B30022E51A4519703D750E01E5117009751182
:1016C30001F519751A9622E4F511F519751AFA221E
:1016D300E50F6020E51E451D700AF50F8536357F41
:1016E30001021FE9E51A4519700A750E01F519750E
:0516F3001A6405142239
:10160100121683E50E607AE4F50EE51514B40C00AC
:10161100506990162175F003A4C58325F0C5837325
:1016210002164502164A02164F02165402165902B4
:10163100165E02166302166802167C021672021604
:101641006D02167712000380351219998030121F2E
:10165100C0802B1218EB80261220C080211220C5D9
:10166100801C1220CA80171220CF80121220D48031
:101671000D1220B4800812000E8003121F231220C5
:02168100DE2267
:0620BA00202020563D34F9
:1016F800E490012FF0900131F090015DF0F50CF5C8
:101708000A900132F0FFEF75F011A42433F582E45A
:101718003401F583E4F0EF75F011A42434F582E484
:101728003401F583E4F0A3F0EF75F011A42461F51A
:1017380082E43401F583E4F0EF75F011A42462F536
:1017480082E43401F583E4F0A3F0EF75F011A424EA
:1017580064F582E43401F583E4F00FBF02A8E4F5F0
:011768000F71
:01176900225D
:101FFC00E4F51FF520F524F523F522F521752505CB
:03200C00F5262294
:0D2041007F547E03EF1F70011EEF4E70F7FD
:01204E00226F
:101F9100AD07AC06D3ED9400EC9400400A12204149
:081FA100ED1D70F01C80ED2223
:0E204F001220DDD282D2A7D2A6D2A1D2A22226
:10200F00E58954F04401F589758CF8758ACCD2A90D
:03201F00D28C223E
:03000B000214D507
:1014D500C0E0C0F0C083C082C0D075D000C000C0DD
:1014E50001C002C003C004C005C006C007758CF862
:1014F500758ACC9000FAE0600D90012DE0FF14F0A4
:10150500EF7003A304F0AF2C052CEFC39403400642
:10151500752A01752C00E51A45196008E51A151A92
:1015250070021519E53C453B6008E53C153C700229
:10153500153BE51B6002151BAF3D153DEF7017759B
:101545003D64E51C6002151CE51E451D6008E51E91
:10155500151E7002151D12000AD007D006D005D041
:1015650004D003D002D001D000D0D0D082D083D017
:04157500F0D0E032A0
:101FD500E4F50BF50D900008F0753D64F510121F42
:041FE500A90216F83F
:101CBD0012204F7FC87E00121F91C2AF1220D91281
:101CCD00200F121EC4121FFC122022121FD5D2AFDC
:101CDD00121B72C280121D21121425121601121E22
:031CED000980F279
:040DAE008E408F41A3
:100DB2008541828E83E0FFC4135407F536E50F7038
:100DC20003853635EF131313540314600F146014A4
:100DD20024027018753900753A50801675390075FD
:100DE2003AA0800E753901753A4080067539027550
:100DF2003A80EF5407F537E4F53BF53CF538854189
:100E020082854083A3E0540FFF854182854083A3FE
:100E1200A3E0900131F0E490012FF090015DF09099
:100E22000131E02F900130F0E4900008F0F5347DBC
:100E320004854182854083A3A3A3E0F990012FE0BA
:100E420075F011A42433F582E43401AF82F5428FA8
:100E520043F583E5822404F582E43583F583E9F0E2
:100E6200E4FFEFC3995036EFC3940C5030E5412DA7
:100E7200F582E43540F583E5822FF582E43583F58A
:100E820083E0FEE5432405F582E43542F583E582FD
:100E92002FF582E43583F583EEF00F80C5E92DFD51
:100EA2002541F582E43540F583E08543828542831E
:100EB200F0E5412DF582E43540F583A3E0FEE541FE
:100EC2002DF582E43540F583A3A3E07C002400FFE6
:100ED200EC3E854382854283A3F0A3EFF090012F7D
:100EE200E0700A900134E0F508A3E0F50990012FC3
:080EF200E004F07F01021FE99A
:10040800E4F543F544900104E0540FF540A3E0906F
:100418000131F0E50A14601F04703DE490012FF0EB
:1004280090015DF0900131E02540900130F0E490BA
:100438000008F0F534802690015DE014F0E0B40186
:10044800157E017F617C017D72121579900175E03E
:10045800900164F080078000E490015DF0E540249D
:10046800FE700302055304600302067790012FE033
:10047800C394024002E4F090012FE075F011A42427
:1004880033F582E43401AD82FC900100E070077519
:10049800440BF5418010900100E0B4010975440C4B
:1004A800900106E0F5418D828C83ED2404F582E409
:1004B8003CF583E541F0E4F543E543C39541503409
:1004C800E543C3940C502DE544254324FBF582E411
:1004D8003400F583E0FF8D828C83ED2405F582E4FA
:1004E8003CF583E5822543F582E43583F583EFF017
:1004F800054380C5E5412544F54424FBF582E434F1
:1005080000F583E08D828C83F074FC2544F582E449
:100518003400F583E0FE74FD2544F582E43400F5EB
:1005280083E07A002400FFEA3E8D828C83A3F0A347
:10053800EFF090012FE0700A900134E0F508A3E095
:10054800F50990012FE004F0020677900100E070B1
:100558000975440BF541F542801B900100E0B40198
:100568001475440C900106E0F541900101E0C39533
:100578004124F5F542900137E541F0E4F543E543C0
:10058800C395415027E543C3940C5020E5442543C7
:1005980024FBF582E43400F583E0FF74382543F545
:1005A80082E43401F583EFF0054380D2E541254428
:1005B800F54424FBF582E43400F583E0900133F040
:1005C80074FC2544F582E43400F583E0FE74FD25CF
:1005D80044F582E43400F583E07C002400FFEC3E1F
:1005E800900134F0A3EFF074032544F544900148DA
:1005F800E542F0E4F543E543C395425027E543C39C
:10060800940C5020E544254324FBF582E43400F59E
:1006180083E0FF74492543F582E43401F583EFF064
:10062800054380D2E5422544F54424FBF582E434B1
:1006380000F583E0900144F074FC2544F582E4342D
:1006480000F583E0FE74FD2544F582E43400F5836B
:10065800E07C002400FFEC3E900145F0A3EFF09011
:100668000134E0F508A3E0F50990012F7402F09039
:100678000103E0C4135407F536E50F7003853635DA
:10068800900103E0131313540314600F146014242F
:10069800027018753900753A508016753900753A28
:1006A800A0800E753901753A408006753902753A91
:1006B80080900103E05407F537E4F53BF53CF53845
:0506C800E50FB402384B
:1006CD00C37440951EF546741F951DF5457875E666
:1006DD002401F548E433F547C3E5469548E54595CE
:1006ED00474008E4F50F853635800DC3E54895463E
:0806FD00F51EE5479545F51DCA
:09070500E50F70057F01121FE9E8
:01070E0022C8
:100EFA00E4900132F07873E69000C8F0A37403F02E
:100F0A009000C714F0E50B70239000CAF07E007FB2
:100F1A00C87D03121A798E408F419000CBEFF0E51D
:100F2A0040A3F09000C77405F0021025E50B640396
:100F3A00600302102590015DE0702B9000CA7402D4
:100F4A00F0A304F0E4A3F07E007FC87D05121A79AD
:100F5A008E408F419000CDEFF0E540A3F09000C79E
:100F6A007407F002102590015DE06401704A900058
:100F7A00CA7404F0A314F0900164E0C454F0FF9022
:100F8A00015DE04F9000CCF0900162E09000CDF05E
:100F9A00900162E0A3E09000CEF07E007FC87D075A
:100FAA00121A798E408F419000CFEFF0E540A3F0FE
:100FBA009000C77409F0806390015DE06402705B81
:100FCA009000CA7406F0A37403F0900175E0C4544B
:100FDA00F0FF90015DE04F9000CCF0900162E0904C
:100FEA0000CDF0900162E0A3E09000CEF090017392
:100FFA00E09000CFF0900173E0A3E09000D0F07E83
:10100A00007FC87D09121A798E408F419000D1EF76
:10101A00F0E540A3F09000C7740BF07B017A0079E9
:09102A00C89000C7E0FD021DDCC6
:101D51007873E69000C8F0A37403F0E4A3F07E006A
:101D61007FC87D03121A799000CBEFF0A3EEF090BB
:101D710000C77405F07B017A0079C8E0FD021DDC23
:0E205D007B017A0079FB9000FAE0FD021DDCA9
:101CF0007873E69000C8F0A37490F0A3E50AF07E34
:101D0000007FC87D03121A799000CBEFF0A3EEF0AC
:101D10009000C77405F07B017A0079C8E0FD021DD0
:011D2000DCE6
:101C1E007873E69000C8F0A37410F0E4A3F0A3F07C
:101C2E00A3F0A37405F07E007FC87D06121A79908A
:101C3E0000CEEFF0A3EEF09000C77408F07B017AAF
:081C4E000079C8E0FD021DDC75
:0D207800121FA91216F8E47873F60219E79A
:100026007873E6F53EE4F53F7E007FFB9000FAE04C
:1000360024FEFD121A79AD07AC069000FAE024F909
:10004600F582E43400F583E0FB7A009000FAE024C0
:10005600FAF582E43400F583E0FEE42BFBEA3EFA8F
:10006600ED6B7002EC6A6003020407C2A29000FB0B
:10007600E060030201EBA3E0640660030201EB907B
:1000860000FAE0640860030201EB9000FEE07006EF
:100096001220780204059000FEE0B40121E50C640C
:1000A600027003020405750C01900100E07879F6F0
:1000B600753502E4F5377F04121FE9020405900046
:1000C600FEE064106003020154A3E0FEA3E07C009E
:1000D6002400F518EC3EF517E4F53F7473253FF858
:1000E600E6FF7479253FF8A607053FE53FB406EB22
:1000F600E518451770047F048048E518B41109E532
:1001060017B427047F05803AE518B41209E517B439
:1001160027047F06802CE518B41309E517B42704D5
:100126007F07801EE518B41409E517B427047F0875
:100136008010E518B41509E517B427047F0B800273
:100146007F0A121FE9753502E4F5370204059000AF
:10015600FEE0B41109121FA91216F8020405900058
:10016600FEE0B42010900100E07874F67F05121FBF
:10017600E9787480649000FEE0B4210B900100E001
:100186007875F67F0680229000FEE0B4220B90017F
:1001960000E07876F67F0780109000FEE0B423201A
:1001A600900100E07877F67F08121FE97535027531
:1001B6003701E4F53BF53CF538F539753A64801FAF
:1001C6009000FEE064246003020405900100E078DC
:1001D60078F67F0B121FE97878E6F535E4F53712E5
:1001E60019E70204059000FBE0653E600302036E1A
:1001F600E53E700302036EA3E024FA603724F6702E
:10020600030202E8240D60030204059000FFE0707B
:100216000BA3E0B40106121D510204059000FFE095
:100226006003020405A3E064036003020405120EE2
:10023600FA0204059000FAE064086003020405125D
:10024600205D9000FEE07002800C9000FEE06401EC
:100256006004E0B4020C121FA91216F8E4F50B02B2
:1002660004059000FEE0B4201C900100E07005F546
:100276000D020405900100E06401600302040575A7
:100286000D010204059000FEE064306003020405DF
:10029600900100E06401600302040590015DE0B492
:1002A600010890012FE06401601490015DE0640292
:1002B600600302040590012FE0600302040590012B
:1002C6005DE014F0E0640160030204057E017F61D5
:1002D6007C017D72121579900175E0900164F0023F
:1002E6000405900102E07012900101E0B40A0B12BD
:1002F6001C1E121FA91216F88065900100E0700BF3
:10030600A3E0B40A06A3E06403602C900100E06455
:1003160001704C9000FAE024F7FF900101E06F7045
:100326003EA3E064037038900106E0FF900101E00F
:10033600C39FC394084028900104E0FFC4540FF5FE
:100346000AE50BB4030D900132E0B40106121CF06D
:10035600020405121C1E1204089001327401F0906A
:100366000102E0F50B0204059000FBE064F860036F
:10037600020405A3E064106003020405900100E096
:100386006402707B9000FAE024F7FF900101E06FB1
:10039600706DA3E0702BF53F900104E0FFE53FC3CD
:1003A6009F505C7405253FF582E43401F583E0B582
:1003B6003E0B121FA91216F8E4F50B8042053F808A
:1003C600D7900102E064037036F53F900104E0FF28
:1003D600E53FC39F50297405253FF582E43401F5B6
:1003E60083E0B53E16900104E02405F582E434016D
:1003F600AF82FE120DAE750B038004053F80CCD292
:01040600A253
:0104070022D2
:101E090090012EE06021E5326401601BE530640138
:101E190060159000FAE0C394064003120026E4908E
:081E2900012EF09000FAF022F6
:101E3100E589540F4420F5897598D075B8105387FA
:101E41007F75A240438E40538EFE758BF7758DF7DB
:071E5100C2ABD28ED2AC221D
:10202200121E31E49000FAF090012EF090012DF092
:01203200228B
:03002300021A318D
:101A3100C0E0C083C082C0D075D000C00730982DEF
:101A4100C2989000FAE0C39432502290012EE064D3
:101A510001601A9000FAE0FF04F074FB2FF582E4B4
:101A61003400F583E599F090012D7402F0D007D090
:081A7100D0D082D083D0E03216
:101DDC00C2A1D280EDD39400401E12124FFF20D02E
:101DEC0004C29B8002D29B8F993099FDC2997401D9
:0D1DFC0029F9E43AFA1D80DCC280D2A12250
:10124F00BB010689828A83E0225002E722BBFE029D
:09125F00E32289828A83E49322D0
:10126800BB010CE58229F582E5833AF583E022503B
:1012780006E92582F8E622BBFE06E92582F8E22285
:0D128800E58229F582E5833AF583E493229F
:10129500BB010689828A83F0225002F722BBFE0138
:0212A500F32232
:1012A700F8BB010DE58229F582E5833AF583E8F07D
:1012B700225006E92582C8F622BBFE05E92582C829
:0212C700F22211
:1012C900EF8DF0A4A8F0CF8CF0A428CE8DF0A42E39
:0212D900FE22F3
:1012DB00BC000BBE0029EF8DF084FFADF022E4CCF7
:1012EB00F875F008EF2FFFEE33FEEC33FCEE9DECC0
:1012FB00984005FCEE9DFE0FD5F0E9E4CEFD22ED06
:10130B00F8F5F0EE8420D21CFEADF075F008EF2F4F
:10131B00FFED33FD4007985006D5F0F222C398FD40
:05132B000FD5F0EA22DD
:10133000EB9FF5F0EA9E42F0E99D42F0E89C45F013
:01134000228A
:00000001FF
